:020000040000FA
:10000000F02420208D0100009101000093010000E8
:1000100000000000000000000000000000000000E0
:10002000000000000000000000000000950100003A
:10003000000000000000000097010000990100008E
:100040009B0100009B0100009B0100009B01000040
:100050009B0100009B0100009B0100009B01000030
:100060009B0100009B0100009B0100009B01000020
:100070009B0100009B0100009B0100009B01000010
:100080009B0100009B0100009B0100009B01000000
:100090009B0100009B0100009B0100009B010000F0
:1000A0009B0100009B0100009B0100009B010000E0
:1000B0009B0100009B0100009B0100009B010000D0
:1000C00000F002F800F052F812A030C808382418E6
:1000D0002D18AC4201D100F049F80FCCA246AB4636
:1000E0000CA730CF2D1B083F3F197C427F1E544484
:1000F0002D090426F441641EAC4201D300F036F809
:100100000126334200D0FB1A3343984754465D46DC
:10011000DFE70000242A0000442A0000000000005D
:10012000103A02D378C878C1FAD8520701D330C840
:1001300030C101D504680C60704700000000000069
:100140007047000000000000002300240025002666
:10015000103A01D378C1FBD8520700D330C100D583
:100160000B6070471FB51FBD10B510BD00F043F9FF
:100170001146FFF7F7FF01F0F3FE00F05BF903B45F
:10018000FFF7F2FF03BC00F061F9000006480047EA
:10019000FEE7FEE7FEE7FEE7FEE7FEE70348044969
:1001A000024A044B70470000C1000000F004202008
:1001B000F0242020F004202001E004C0091F0429BD
:1001C000FBD28B0701D50280801CC90700D00270CA
:1001D000704700290BD0C30702D00270401C491E93
:1001E000022904D3830702D50280801C891EE3E71D
:1001F0000022EEE70022DFE7002203098B4273D3DF
:10020000030A8B4258D3030B8B423CD3030C8B4223
:1002100021D312E003460B437FD4002243088B42D4
:1002200074D303098B425FD3030A8B4244D3030B7D
:100230008B4228D3030C8B420DD30902FF2212BA42
:10024000030C8B4202D31212090265D0030B8B42BE
:1002500019D300E0090AC30B8B4201D3CB03C01AA8
:100260005241830B8B4201D38B03C01A5241430B83
:100270008B4201D34B03C01A5241030B8B4201D373
:100280000B03C01A5241C30A8B4201D3CB02C01ADE
:100290005241830A8B4201D38B02C01A5241430A56
:1002A0008B4201D34B02C01A5241030A8B4201D345
:1002B0000B02C01A5241CDD2C3098B4201D3CB01EC
:1002C000C01A524183098B4201D38B01C01A52419B
:1002D00043098B4201D34B01C01A524103098B429F
:1002E00001D30B01C01A5241C3088B4201D3CB008A
:1002F000C01A524183088B4201D38B00C01A52416D
:1003000043088B4201D34B00C01A5241411A00D21C
:1003100001465241104670475DE0CA0F00D0494285
:10032000031000D3404253409C46002203098B42F5
:100330002DD3030A8B4212D38901FC2212BA030A7D
:100340008B420CD3890192118B4208D389019211FF
:100350008B4204D389013AD0921100E08909C30984
:100360008B4201D3CB01C01A524183098B4201D386
:100370008B01C01A524143098B4201D34B01C01A71
:10038000524103098B4201D30B01C01A5241C308E9
:100390008B4201D3CB00C01A524183088B4201D358
:1003A0008B00C01A5241D9D243088B4201D34B0073
:1003B000C01A5241411A00D20146524110466346CA
:1003C0005B1001D34042002B00D549427047634681
:1003D0005B1000D3404201B50449002802DC491CEF
:1003E000084000E00846C046C04602BDFFFFFF7F50
:1003F000704770477047754600F024F8AE46050018
:1004000069465346C008C000854618B020B5FFF7BE
:10041000C5FE60BCB64600260027C0C5C0C5C0C525
:10042000C0C5C0C5C0C5C0C5C0C5403D490849001C
:100430008D46704710B50446C046C0462046FFF7BB
:100440009EFE10BD0048704748002020014918203A
:10045000ABBEFEE7260002007047811E091F00BFE9
:10046000FCD2704712490A68124802604A6842602A
:100470008A688260CA68C2600A6902614A69426128
:100480008A698261CA69C2610A6A02624A6A426210
:100490008A6A8262CA6AC2620A6B02634A6B4263F8
:1004A0008A6B8263C96B7B4A0264C1637047C04632
:1004B0000000C44100002020B0B511221202835870
:1004C0000C4C1C400B894D881D438B792B430A4DE6
:1004D0001D4063198350CB798C881C4309782143D4
:1004E0005D239B001940801842689A43511841606F
:1004F000B0BDC04680CCFFFF7F33000010B50122A5
:10050000120383180C785C604978815010BD00009C
:10051000F0B585B0044601252902394E30680491B2
:10052000884330605A480068006C5A49884201D0BC
:10053000FFF798FFA9036C4802680A4208D10268D5
:100540000A4205D102680A4202D102680A42F3D087
:10055000617E2940B269AA435118B1612021615CD2
:1005600003221140F36993435918F16125490A6840
:1005700005230B60636A1F6837625B687362072339
:1005800013400B60E1697F221202F369934349062D
:10059000490C5918F161276803956568A1680091B5
:1005A000E3682169019161690291B26916491140BC
:1005B0003A07120B2D03ADB2AA181A43009B1B0772
:1005C0001B0D1343019A1343029A1343227E1A43CD
:1005D0000E4B13405918B1613168049A11433160D0
:1005E0000399490202680A4208D102680A4205D109
:1005F00002680A4202D102680A42F3D005B0F0BD97
:1006000008010B40001340408D00F0FF72FF0F0007
:10061000F0B581B014460D4606461D480068006CD2
:100620001C49884201D0FFF71DFF1B480246083ACB
:10063000136801218B43136003231B031E400768CB
:100640009F43BB1903600368FF26B343EDB25B19F8
:10065000036013680B4313600268002C12D00B0771
:100660001A430260080220490A68024208D10A6857
:10067000024205D10A68024202D10A680242F3D05E
:1006800001B0F0BD09078A43026001B0F0BDC04669
:1006900044002020FECAFECA10010B4010B51149CB
:1006A000886001225305104804681C4208D1046880
:1006B0001C4205D104681C4202D104681C42F3D0DC
:1006C00012040B6813430B600168C90608D4016863
:1006D000C90605D40168C90602D40168C906F3D564
:1006E00010BDC04604010B4004020B40F0B589B0B8
:1006F0008948402404611920C0010490FFF7ADFE31
:10070000012739057D4D2868C002059105D4286868
:10071000084202D10123002001E0002338463A06B6
:100720002968C901039206D42968114203D1022124
:100730000891002101E0089339467B062A6892015E
:10074000029306D42A681A4203D103220892002297
:1007500000E03A463B040793FE062B681B0105D4D4
:100760002B68334202D16C48079979E0069608401D
:100770001040694804600FD0802404610498FFF79A
:100780006CFE28680599084209D12868084206D1FC
:1007900001200890002003E0089807997CE0384683
:1007A000039A029B2968114206D12968114203D19C
:1007B00002210891002100E039462A681A4206D138
:1007C0002A681A4203D103220892002200E03A4626
:1007D0002B68069E334206D12B68069E334202D117
:1007E0000799091D3BE0084010404B4804600FD0BA
:1007F0000126340204610498FFF72FFE286805994A
:10080000084208D12868084205D10020089603E074
:100810000799091D3FE03846039A029B2968114257
:1008200006D12968114203D102210891002100E07C
:1008300039462A681A42019606D12A681A4203D11B
:1008400003220892002200E03A462B68069E3342BB
:1008500009D12B68069E334205D1079908312E48ED
:100860000460042018E0084010402B48046010D0B9
:1008700001994C0204610498FFF7EFFD286805997F
:1008800008420DD1286808420AD10D2008900020A6
:100890000AE0079908310898401880B209B0F0BD05
:1008A00008980C3008903846039A029B2968114238
:1008B00006D12968114203D10E210891002100E0E0
:1008C00039462A681A4205D12A681A4202D10F22F3
:1008D000089200272A68069B1A4206D12A681A4203
:1008E00003D10D4804601020D7E7084038400A487B
:1008F000046001D10898D0E70020CEE780330A4099
:100900000548402101608021016001210A02026046
:10091000490201607047C04690320A40F0B581B08C
:100920000121080249020022D84BD94C03E0521C95
:10093000082A00D19CE0186119612568ED0608D5E8
:100940002568ED0605D52568ED0602D52568ED0676
:10095000F3D41546B03525632568ED0608D525681E
:10096000ED0605D52568ED0602D52568ED06F3D41C
:1009700019601860186119612568ED0608D52568A9
:10098000ED0605D52568ED0602D52568ED06F3D4FC
:10099000022525632568ED0608D52568ED0605D5F1
:1009A0002568ED0602D52568ED06F3D419601860B8
:1009B000186119612568ED0608D52568ED0605D58D
:1009C0002568ED0602D52568ED06F3D410252563CC
:1009D0002568ED0608D52568ED0605D52568ED06E0
:1009E00002D52568ED06F3D419601860002505E0EE
:1009F00019601860AD1C6DB2002D98D41860196193
:100A00002668F60608D52668F60605D52668F60691
:100A100002D52668F606F3D4002626632768FF066B
:100A200008D52768FF0605D52768FF0602D5276881
:100A3000FF06F3D419601860186019612768FF0673
:100A400008D52768FF0605D52768FF0602D5276861
:100A5000FF06F3D426632668F606C9D52668F6068F
:100A6000C6D52668F606C3D52668F606F3D4BFE7D2
:100A700041200101C548FFF7BDFB01B0F0BDC046F4
:100A8000F0B58BB0089207900693994200D3FAE034
:100A900010980A900B460899079FCA1B01200092E4
:100AA000024003920E223A40521C05924C421946D3
:100AB000FA430992050246023809103004900022D8
:100AC000724F734BE0B202900998C0B2019006E0F9
:100AD00002460999491C0698814200D1D3E010468C
:100AE0003D613E611A68D20608D51A68D20605D55E
:100AF0001A68D20602D51A68D206F3D40A46B03272
:100B0000D2B21A631A68D20608D51A68D20605D579
:100B10001A68D20602D51A68D206F3D43E603D6048
:100B20003D613E611A68D20608D51A68D20605D51D
:100B30001A68D20602D51A68D206F3D4049A1A6348
:100B40001A68D20608D51A68D20605D51A68D206E0
:100B500002D51A68D206F3D43E603D603D613E6125
:100B60001A68D20608D51A68D20605D51A68D206C0
:100B700002D51A68D206F3D40991059919631A6847
:100B8000D20608D51A68D20605D51A68D20602D54B
:100B90001A68D206F3D43E603D600899079A9142E4
:100BA00096D90399002902461FD00A990A5C3D6034
:100BB0003E611C68E40608D51C68E40605D51C687F
:100BC000E40602D51C68E406F3D41A631A68D20658
:100BD00008D51A68D20605D51A68D20602D51A6851
:100BE000D206F3D43E603D60421C0299019C8C42C7
:100BF00000D16EE70099081807E03E603D60C1B281
:100C0000921CD4B2A14200D163E70A998C5C3D608A
:100C10003E611968C90608D51968C90605D519685D
:100C2000C90602D51968C906F3D41C631968C90638
:100C300008D51968C90605D51968C90602D5196805
:100C4000C906F3D43E603D600A9951184C783D6066
:100C50003E611968C90608D51968C90605D519681D
:100C6000C90602D51968C906F3D41C631968C906F8
:100C7000C3D51968C906C0D51968C906BDD5196894
:100C8000C906F3D4B9E70BB0F0BDC04690520A4094
:100C900010914640F0B587B0049103901546554336
:100CA00069008D4201D907B0F0BD00200590009584
:100CB00004E01046504340008542F4DC069205985B
:100CC0000399431804460590DBB2DB006F48C71850
:100CD000019704998E1AF3B2DD08795D072202921A
:100CE000164001221346B34019437955039F391B1F
:100CF000C9B2C90041184E5D1E434E550698049B6B
:100D0000C318DDB2ED084E5D029C234010469840AA
:100D100006434E55019B595D014359550698C0192C
:100D2000C0B2C00059490D18059B04981818C1B2EB
:100D3000CF08E95D2040164686403143E9550498C6
:100D4000C01AC1B2C9086B5C2040824013436B5487
:100D5000009D0698039B181AC0B2C0004B4B181890
:100D6000435C1343069A4354C15D3143C155104659
:100D7000504305994B1C194659430C18AC4200D8F6
:100D80000593AC4295D9521E93E7C046A800202097
:100D9000F0B588B014460027FA4307918B420192C0
:100DA000114600D13946079A9E1A0125002E00955A
:100DB00000DC0091844200D101970146201A0128ED
:100DC00000DB0195C2175040841A0798834201D175
:100DD000384600E06042002E0A4600DC0646B44277
:100DE0000294234600DC334604960D98039039465E
:100DF0003D4603E07F1CB8B2834232D3059506918D
:100E0000072007990840012585401646D0B2C0004A
:100E10001E4A14180806C20EA05C0399002901D0CE
:100E2000284300E0A843A054049806990D189D4259
:100E300003DD0798009940180790324602980599FB
:100E40000C189C4204DCE91A06DDE51AD2DC06E047
:100E500001981218E91AF8DC2946E51ACADC254679
:100E6000C8E708B0F0BDC04610B507240C40012308
:100E7000A340C000054C2018C908445C002A02D0D9
:100E80001C43445410BD9C43445410BDA800202072
:100E9000F0B583B00127FD05094E3560094C2046A9
:100EA000FFF7DBFA35612046FFF7D7FA35603C02E1
:100EB000054D2C6102977E022E61044F08E0C0466A
:100EC00090320A4000127A0090520A401091464037
:100ED0003868C00608D53868C00605D53868C00629
:100EE00002D53868C006F3D4AE2038633868C0062F
:100EF00008D53868C00605D53868C00602D53868F8
:100F0000C006F3D42E602C602C612E613868C006B8
:100F100008D53868C00605D53868C00602D53868D7
:100F2000C006F3D4022038633968C90608D5396889
:100F3000C90605D53968C90602D53968C906F3D48A
:100F40002E602C602C612E613968C90608D539687D
:100F5000C90605D53968C90602D53968C906F3D46A
:100F60001021019139633968C90608D53968C90665
:100F700005D53968C90602D53968C906F3D42E608B
:100F80002C602C612E613968C90608D53968C906FC
:100F900005D53968C90602D53968C906F3D4402297
:100FA0003A633968C90608D53968C90605D539686C
:100FB000C90602D53968C906F3D42E602C602C61AD
:100FC0002E613968C90608D53968C90605D539685A
:100FD000C90602D53968C906F3D481213963396855
:100FE000C90608D53968C90605D53968C90602D5C4
:100FF0003968C906F3D42E602C602C612E613968E3
:10100000C90608D53968C90605D53968C90602D5A3
:101010003968C906F3D4CF2139633968C90608D5C0
:101020003968C90605D53968C90602D53968C906BF
:10103000F3D42E602C602C612E613968C90608D566
:101040003968C90605D53968C90602D53968C9069F
:10105000F3D4A12139633968C90608D53968C906AE
:1010600005D53968C90602D53968C906F3D42E609A
:101070002C602C612E613968C90608D53968C9060B
:1010800005D53968C90602D53968C906F3D4C8211F
:1010900039633968C90608D53968C90605D539687C
:1010A000C90602D53968C906F3D42E602C602C61BC
:1010B0002E613968C90608D53968C90605D5396869
:1010C000C90602D53968C906F3D4A62139633B683D
:1010D000DB0608D53B68DB0605D53B68DB0602D599
:1010E0003B68DB06F3D42E602C602C612E613B68DC
:1010F000DB0608D53B68DB0605D53B68DB0602D579
:101100003B68DB06F3D4A8233B633B68DB0608D5CA
:101110003B68DB0605D53B68DB0602D53B68DB0692
:10112000F3D42E602C602C612E613B68DB0608D561
:101130003B68DB0605D53B68DB0602D53B68DB0672
:10114000F3D43F233B633B68DB0608D53B68DB06F3
:1011500005D53B68DB0602D53B68DB06F3D42E6081
:101160002C602C612E613B68DB0608D53B68DB06F2
:1011700005D53B68DB0602D53B68DB06F3D4D323F9
:101180003B633B68DB0608D53B68DB0605D53B685F
:10119000DB0602D53B68DB06F3D42E602C602C61A5
:1011A0002E613B68DB0608D53B68DB0605D53B684E
:1011B000DB0602D53B68DB06F3D400233B633B68C8
:1011C000DB0608D53B68DB0605D53B68DB0602D5A8
:1011D0003B68DB06F3D42E602C602C612E613B68EB
:1011E000DB0608D53B68DB0605D53B68DB0602D588
:1011F0003B68DB06F3D4D5233B633B68DB0608D5AD
:101200003B68DB0605D53B68DB0602D53B68DB06A1
:10121000F3D42E602C602C612E613B68DB0608D570
:101220003B68DB0605D53B68DB0602D53B68DB0681
:10123000F3D480233B633B68DB0608D53B68DB06C1
:1012400005D53B68DB0602D53B68DB06F3D42E6090
:101250002C602C612E613B68DB0608D53B68DB0601
:1012600005D53B68DB0602D53B68DB06F3D4D92302
:101270003B633B68DB0608D53B68DB0605D53B686E
:10128000DB0602D53B68DB06F3D42E602C602C61B4
:101290002E613B68DB0608D53B68DB0605D53B685D
:1012A000DB0602D53B68DB06F3D4F1233B633B68E6
:1012B000DB0608D53B68DB0605D53B68DB0602D5B7
:1012C0003B68DB06F3D42E602C602C612E613B68FA
:1012D000DB0608D53B68DB0605D53B68DB0602D597
:1012E0003B68DB06F3D4DA233B633B68DB0608D5B7
:1012F0003B68DB0605D53B68DB0602D53B68DB06B1
:10130000F3D42E602C602C612E613B68DB0608D57F
:101310003B68DB0605D53B68DB0602D53B68DB0690
:10132000F3D412233B633B68DB0608D53B68DB063E
:1013300005D53B68DB0602D53B68DB06F3D42E609F
:101340002C602C612E613B68DB0608D53B68DB0610
:1013500005D53B68DB0602D53B68DB06F3D4DB230F
:101360003B633B68DB0608D53B68DB0605D53B687D
:10137000DB0602D53B68DB06F3D42E602C602C61C3
:101380002E613B68DB0608D53B68DB0605D53B686C
:10139000DB0602D53B68DB06F3D43A633A68D20633
:1013A00008D53A68D20605D53A68D20602D53A6819
:1013B000D206F3D42E602C602C612E613A68D206DE
:1013C00008D53A68D20605D53A68D20602D53A68F9
:1013D000D206F3D420223A633A68D20608D53A6896
:1013E000D20605D53A68D20602D53A68D206F3D4B9
:1013F0002E602C602C612E613A68D20608D53A68BE
:10140000D20605D53A68D20602D53A68D206F3D498
:1014100038633868C00608D53868C00605D538680E
:10142000C00602D53868C006F3D42E602C602C614B
:101430002E613868C00608D53868C00605D53868FA
:10144000C00602D53868C006F3D48D2038633868EA
:10145000C00608D53868C00605D53868C00602D56C
:101460003868C006F3D42E602C602C612E61386879
:10147000C00608D53868C00605D53868C00602D54C
:101480003868C006F3D4142038633868C00608D51D
:101490003868C00605D53868C00602D53868C00669
:1014A000F3D42E602C602C612E613868C00608D5FC
:1014B0003868C00605D53868C00602D53868C00649
:1014C000F3D4A42038633868C00608D53868C0064D
:1014D00005D53868C00602D53868C006F3D42E603A
:1014E0002C602C612E613868C00608D53868C006AB
:1014F00005D53868C00602D53868C006F3D439630C
:101500003868C00608D53868C00605D53868C006F2
:1015100002D53868C006F3D42E602C602C612E6191
:101520003868C00608D53868C00605D53868C006D2
:1015300002D53868C006F3D4AF2139633868C006D5
:1015400008D53868C00605D53868C00602D53868A1
:10155000C006F3D42E602C602C612E613868C00662
:1015600008D53868C00605D53868C00602D5386881
:10157000C006F3D4009139633868C00608D53868CE
:10158000C00605D53868C00602D53868C006F3D451
:101590002E602C60FFF7C2F92C612E613868C006FE
:1015A00008D53868C00605D53868C00602D5386841
:1015B000C006F3D4009838633868C00608D5386888
:1015C000C00605D53868C00602D53868C006F3D411
:1015D0002E602C602C612E613868C00608D53868F2
:1015E000C00605D53868C00602D53868C006F3D4F1
:1015F000019838633868C00608D53868C00605D534
:101600003868C00602D53868C006F3D42E602C6056
:101610002C612E613868C00608D53868C00605D52B
:101620003868C00602D53868C006F3D4029838631B
:101630003868C00608D53868C00605D53868C006C1
:1016400002D53868C006F3D42E602C6003B0F0BD1C
:10165000F0B583B00120010242020027794B7A4D98
:101660007A4C019100920AE07548FEF7F6FE009A66
:10167000744B1A607F1C082F019900D1DEE01961BC
:101680001A612868C00608D52868C00605D52868EC
:10169000C00602D52868C006F3D43846B0302863A7
:1016A0002868C00608D52868C00605D52868C00681
:1016B00002D52868C006F3D41A60196019611A614E
:1016C0002868C00608D52868C00605D52868C00661
:1016D00002D52868C006F3D400262E632868C00609
:1016E00008D52868C00605D52868C00602D5286830
:1016F000C006F3D41A60196019611A612868C0061F
:1017000008D52868C00605D52868C00602D528680F
:10171000C006F3D41020029028632868C00608D5BC
:101720002868C00605D52868C00602D52868C00606
:10173000F3D41A6019601A614148FEF78EFE2868DA
:10174000C00608D52868C00605D52868C00602D599
:101750002868C006F3D478202863029A2968C9064D
:1017600008D52968C90605D52968C90602D529689A
:10177000C906F3D428632868C00608D52868C006BF
:1017800005D52868C00602D52868C006F3D44020D5
:1017900028632868C0060DD52868C0060AD52868C1
:1017A000C00607D52868C006F3D403E0361D802E96
:1017B00000D159E7F0002118C95D29632968C906DD
:1017C00008D52968C90605D52968C90602D529683A
:1017D000C906F3D4082101436118C95D296329684A
:1017E000C90608D52968C90605D52968C90602D5DC
:1017F0002968C906F3D4014611436118C95D2963FC
:101800002968C90608D52968C90605D52968C90601
:1018100002D52968C906F3D4182108432018C05DF1
:1018200028632868C006C1D52868C006BED52868C8
:10183000C006BBD52868C006F3D4B7E703B0F0BD37
:10184000801A060090520A4010914640A8002020BD
:10185000F0B501252B02924C23616D0225618609AA
:10186000022737408F4E3468E40608D53468E40612
:1018700005D53468E40602D53468E406F3D4C91902
:101880005039C9B23163203A3168C90608D5316888
:10189000C90605D53168C90602D53168C906F3D431
:1018A0007F4F3D603B603B613D613168C90608D5B3
:1018B0003168C90605D53168C90602D53168C9063F
:1018C000F3D440B2C1178843010910240C43346398
:1018D0003168C90608D53168C90605D53168C90619
:1018E00002D53168C906F3D43D603B603B613D6180
:1018F0003168C90608D53168C90605D53168C906F9
:1019000002D53168C906F3D40E210840401C30636B
:101910003068C00608D53068C00605D53068C006F6
:1019200002D53068C006F3D43D603B603B603D614A
:10193000D1B2062048435C490A5C3468E40608D505
:101940003468E40605D53468E40602D53468E40654
:10195000F3D432633268D20608D53268D20605D590
:101960003268D20602D53268D206F3D43D603B60BD
:101970003B603D61081841783268D20608D532686C
:10198000D20605D53268D20602D53268D206F3D423
:1019900031633168C90608D53168C90605D5316893
:1019A000C90602D53168C906F3D43D603B603B608F
:1019B0003D6181783268D20608D53268D20605D5F5
:1019C0003268D20602D53268D206F3D43163316868
:1019D000C90608D53168C90605D53168C90602D5DA
:1019E0003168C906F3D43D603B603B603D61C1781E
:1019F0003268D20608D53268D20605D53268D206DA
:101A000002D53268D206F3D431633168C90608D5ED
:101A10003168C90605D53168C90602D53168C906DD
:101A2000F3D43D603B603B603D6101793268D20692
:101A300008D53268D20605D53268D20602D532689A
:101A4000D206F3D431633168C90608D53168C906B6
:101A500005D53168C90602D53168C906F3D43D60A1
:101A60003B603B603D6140793168C90608D531680B
:101A7000C90605D53168C90602D53168C906F3D44F
:101A800030633068C00608D53068C00605D53068B8
:101A9000C00602D53068C006F3D43D603B60F0BD9F
:101AA00090520A401091464066250000F0B589B07A
:101AB00005AC07C4002B65D01C460E9859429A1EEF
:101AC000009240080490581E02900026C8B203906D
:101AD0006D4D08963746019311E0012008903020A3
:101AE0000143CAB230460499484305994018C0B230
:101AF0000699FFF7ADFE7F1C761CA64242D0FF2060
:101B0000B8430399884201D1012120E0F043001934
:101B10000099891BC9B2032901D2012108E0FC22E6
:101B200002400023012169431B1DDCB29442FAD11B
:101B300003221040019C0AD0012801D10A2005E0AF
:101B4000022802D07D20C00000E0642041430798B5
:101B500000F00EFC0A21FEF74FFB08980028BED1CA
:101B60000298B042BBDD0029B7D130460499484302
:101B700005994018C0B220220699FFF769FE00209F
:101B80000890B8E709B0F0BDF0B589B01D4617461A
:101B900006460E9C002A079103D4069628060AD111
:101BA0006FE02D223046FFF753FE60088619069637
:101BB0006D1E280665D0F8174740381A0590A81EF4
:101BC000009060080490E9B2481E029000262E4C56
:101BD000089637460195039111E0012008903020C6
:101BE0000143CAB230460499484306994018C0B22E
:101BF0000799FFF72DFE0399761C8E4241D07F1C7A
:101C0000F8B2814201D1012120E0F0432818009967
:101C1000891BC9B2032901D2012108E0FC2202403C
:101C20000023012161431B1DDDB29542FAD103223D
:101C30001040019D0AD0012801D10A2005E00228A8
:101C400002D07D20C00000E064204143059800F0F0
:101C50008FFB0A21FEF7D0FA08980028BFD102981E
:101C6000B042BCDD0029B8D13046049948430699FA
:101C70004018C0B220220799FFF7EAFD0020089023
:101C8000B9E709B0F0BDC04610270000F0B581B03B
:101C900000921278002A1AD00D46064600242746E4
:101CA00006E07F1CF9B2009A525C002A06460ED06C
:101CB000F0B2E9B2D2B2FFF7CBFD0836F1B2782923
:101CC000204600D830467829EBD9AD1CE9E701B0B1
:101CD000F0BD000070B52E480146103900220A60A0
:101CE00001460C390A608B218160416029492A4CE8
:101CF0000C650A6D0A65294BC363036483654366FB
:101D00004B624B648B64CB64254D2B6081226A60EF
:101D100043628362C36203630C600E680E600C61F1
:101D20000E690E610C620E6A0E628C628C6A8C62A5
:101D3000CA60AA60EB601B4B0360046804604361E7
:101D4000436943618261026542650266081F026061
:101D50008A6015481549016101218A030260144A0D
:101D600002641448144A02600263C80713490A68EF
:101D700002430A6012490A6A02430A620A6802437D
:101D80000A600F2080010F490860086370BDC046DB
:101D900038804240C080424081000E008100020035
:101DA0005081424081000C0090120A4000324300F2
:101DB00000724300A0320A40C033C074A0330A400E
:101DC00028300A40A0520A4010B50D4C0D4920465B
:101DD000FEF794FB0C492046FEF76EFB0B4841686A
:101DE0000B4A0A40D11C4160816812220A432D210E
:101DF0008A438260016801220A43026010BDC04626
:101E000000804640FE2A0000002B0000049146405E
:101E100000FCFFFFF0B581B01F48002404600F26CE
:101E200030021E4D2968814301277802009008186E
:101E300028600320C1432A1F13680B4013606968A0
:101E4000B943696039026A688A436A6000030A21FB
:101E50002246FEF7DDFB1248FEF75AFB29681020E8
:101E6000014320229143296031036A6B8A4309218F
:101E700009035118696339032A680A432A60A96B68
:101E80000143A963686B0099084368632046FEF725
:101E900005FC01B0F0BDC04608030B4004010B4037
:101EA0000C2B000010B50E480722026103680321C5
:101EB0000B4303600B4B1C68640708D41C68640761
:101EC00005D41C68640702D41C686407F3D5042495
:101ED0009C6112020368934309025918016010BD06
:101EE000005144403050444080B500F013F8FFF7F3
:101EF000F1FEFFF78FFFFFF767FFFFF7D3FF242007
:101F0000024900220A540248027380BDB80420200E
:101F1000E0042020B0B50B480B4941600B4A5160EA
:101F20000B4B59600B4C6160891E0B4D69600B496E
:101F3000016011601960216029601020FEF78DFAA0
:101F4000B0BDC04600080A40030000B100280A40A6
:101F500000480A40008846400048444001000026EE
:101F600088B0FFF7C1FFFEF7CBFCFEF791FFDA4C1C
:101F70002046FEF772FAD948009009200027772200
:101F800008233946FEF77CFD2046FEF766FAFEF789
:101F9000C5FCFFF75DFB0A26012230463146154697
:101FA0000792FEF761FFFFF753FBCDA23846394693
:101FB000FFF76CFE2046FEF750FAFEF7AFFC0095E7
:101FC00064221425284629462B460295FEF7E0FE9A
:101FD000FFF73EFBC4A238463946FFF757FE2046BE
:101FE000FEF73BFAFEF79AFC402003902021059172
:101FF0002A46FEF74FFEFFF72BFBBDA238463946B7
:10200000FFF744FE2046FEF728FAFEF787FCBAA247
:1020100030463946FFF73AFE10250095B94A0524A7
:10202000304607992346FFF741FD00950221B64A45
:1020300030462346FFF7A8FDB448FEF70EFAFEF738
:102040006DFC079C0094762206923046314633465A
:10205000FEF79EFEFFF7FCFAAD48FEF7FEF900948E
:1020600036230493069831460246FEF791FEFFF7A9
:10207000EFFAA748FEF7F1F9009406980499324662
:102080000B46FEF785FEFFF7E3FAA148FEF7E5F9F8
:102090000094304631463246049C2346FEF778FED3
:1020A000FFF7D6FA9A48FEF7D8F90798009030461D
:1020B0003146069A2346FEF76BFEFFF7C9FA9448AD
:1020C000FEF7CBF9079C0094069831463246049BF4
:1020D000FEF75EFEFFF7BCFA8D48FEF7BEF90398E7
:1020E00005992246FEF7C0FE06218AA20298FFF754
:1020F000CDFD8648FEF7B1F9FEF710FC00943F23B2
:102100000693384639463A46FEF742FEFFF7A0FAF4
:102110000094284639462A46069BFEF739FEFFF70B
:1021200097FA0094059839460246069C2346FEF726
:102130002FFEFFF78DFA0798009030200490394663
:1021400002462346FEF724FEFFF782FA079C00941E
:10215000039839460246069BFEF71AFEFFF778FA07
:102160000094502039460246069C2346FEF710FE96
:10217000FFF76EFA07980090602039460246234622
:10218000FEF706FEFFF764FA079C009470203946BC
:102190000246069BFEF7FCFDFFF75AFA00947F22E9
:1021A0000692384639463B46FEF7F2FDFFF750FAF5
:1021B000009438462946069A2B46FEF7E9FDFFF7BC
:1021C00047FA009438460599069C22460B46FEF7CE
:1021D000DFFDFFF73DFA0798009038460499224644
:1021E0000B46FEF7D5FDFFF733FA282007214CA256
:1021F000FFF74CFD4548FEF730F9FEF78FFBF8B2CC
:10220000202101242246FEF72FFE7F1C802FF6D1CD
:10221000FFF71EFA2820002143A2FFF737FD2E48C2
:10222000FEF71BF9FEF77AFB0094F1B2142050225E
:102230000B46FEF7ADFDFFF70BFA761C1E2EF3D111
:102240001E2704213AA23846FFF720FD2248FEF758
:1022500004F9FEF763FB1424002137A22046FFF7A0
:1022600015FD0A20012638A23146FFF70FFD0F2089
:10227000022139A2FFF70AFD03213BA23846FFF7EE
:1022800005FD282021463246FEF7EEFD2A20214694
:102290003246FEF7E9FD562021463246FEF7E4FDC0
:1022A000582021463246FEF7DFFD2C24E0B22821DB
:1022B0000122FEF7D9FD641C542CF7D1FFF7C8F9B1
:1022C000FEF72CFBFEF712FA0246009500200423CD
:1022D0000146FFF7EBFBF5E700B4C4048E270000CE
:1022E000506F696E740000004C696E65000000005C
:1022F000436972636C6500004F4C4544205465731C
:102300007400000039300000C8EAFFFF0068890946
:102310000024F40047726170686963730000000074
:102320004772696400000000506F696E74730000AA
:1023300046696C6C6564000044656D6F20436F6D89
:10234000706C6574650000004F4C45442044726118
:1023500077696E67000000004C69627261727920D3
:102360005465737400000000446F6E652100000026
:1023700043088B421AD3002203098B4279D3030A04
:102380008B425ED3030B8B4242D3030C8B4227D389
:102390000902FF2212BA030C8B4202D31212090265
:1023A00003D0030B8B4233D31AE0D3E0411A8041B0
:1023B000401C704703460B4371D443088B42F5D34E
:1023C000002203098B4254D3030A8B4239D3030BF7
:1023D0008B421DD3030C8B4202D394466EE0090A54
:1023E000C30B8B4201D3CB03C01A5241830B8B42E8
:1023F00001D38B03C01A5241430B8B4201D34B03D1
:10240000C01A5241030B8B4201D30B03C01A524135
:10241000C30A8B4201D3CB02C01A5241830A8B42BA
:1024200001D38B02C01A5241430A8B4201D34B02A3
:10243000C01A5241030A8B4201D30B02C01A524107
:10244000CDD2C3098B4201D3CB01C01A52418309BB
:102450008B4201D38B01C01A524143098B4201D3F5
:102460004B01C01A524103098B4201D30B01C01A20
:102470005241C3088B4201D3CB00C01A524183089A
:102480008B4201D38B00C01A524143088B4201D3C7
:102490004B00C01A5241411A524110007047CA0FF6
:1024A00000D04942031000D34042534000229C46D2
:1024B00003098B422DD3030A8B4212D38901FC22DC
:1024C00012BA030A8B420CD3890192118B4208D3B2
:1024D000890192118B4204D3890137D0921100E017
:1024E0008909C3098B4201D3CB01C01A5241830928
:1024F0008B4201D38B01C01A524143098B4201D355
:102500004B01C01A524103098B4201D30B01C01A7F
:102510005241C3088B4201D3CB00C01A52418308F9
:102520008B4201D38B00C01A5241D9D243088B424F
:1025300001D34B00C01A5241411A00D20146524108
:10254000104663465B1000D34042704763465B1001
:1025500000D3404201B50021004201D0C9430846E2
:10256000C046C04602BD0000000000000000002F71
:10257000000000000700070000147F147F140024EF
:102580002A7F2A120062640813230036495522501C
:1025900000000503000000001C2241000000412251
:1025A0001C000014083E08140008083E080800003B
:1025B00000A0600000080808080800006060000033
:1025C000002010080402003E5149453E0000427FB1
:1025D0004000004261514946002141454B310018FD
:1025E00014127F10002745454539003C4A494930BF
:1025F0000001710905030036494949360006494979
:10260000291E000036360000000056360000000883
:102610001422410000141414141400004122140860
:1026200000020151090600324959513E007C121145
:10263000127C007F49494936003E41414122007FDA
:102640004141221C007F49494941007F0909090194
:10265000003E4149497A007F0808087F0000417F19
:102660004100002040413F01007F08142241007FCB
:1026700040404040007F020C027F007F0408107F32
:10268000003E4141413E007F09090906003E41519B
:10269000215E007F09192946004649494931000158
:1026A000017F0101003F4040403F001F2040201FAC
:1026B000003F4038403F006314081463000708706F
:1026C000080700615149454300007F414100005522
:1026D0002A552A55000041417F00000402010204EE
:1026E00000404040404000000102040000205454DB
:1026F0005478007F4844443800384444442000382B
:102700004444487F00385454541800087E0901029C
:102710000018A4A4A47C007F080404780000447D71
:102720004000004080847D00007F102844000000AD
:10273000417F4000007C04180478007C0804047881
:1027400000384444443800FC24242418001824246D
:1027500018FC007C08040408004854545420000469
:102760003F444020003C4040207C001C2040201C76
:10277000003C4030403C004428102844001CA0A0ED
:10278000A07C004464544C44141414141414000029
:102790000000000000000000000000000000000039
:1027A0000000000000000000000000000000000029
:1027B0000000000000000000000000000000000019
:1027C0000000000000000000000000000000000009
:1027D000000000000000000000000080FEFFFFC0BD
:1027E00000000000000000000000000000000000E9
:1027F00000000000000000000000000000000000D9
:102800000000000000000000000000C0C0E0E0F098
:10281000FCFEFCF0E0C0C0C0C0C0C0C0C0C0C0C0B2
:10282000C0C0C0C0C0C0C0C0C0C0C0C0C0C0C0C0A8
:10283000C0C0C0E0E0F8FEFEF8E0E0C0C00000006C
:102840000000000000C0C0E0F8FFFFFFFFFFF8E05D
:10285000E0C0C00000000000000000000000000018
:102860000000000000000000000000000000000068
:10287000000000000000000000000000FFFFFFFF5C
:10288000FFFFFF01FCFCFCFCF8F8F818381F3F3F85
:102890003F3F3A3838F8FCFCFCF8F87000F8F8F8DC
:1028A000F8F8F9FFFFFFFFFDFEFEFCF8F0FCFCFC72
:1028B000FCF8F8F8381999FBFFFFFFFB993938F855
:1028C000FCFCFCFCFCF838000000000000000000EC
:1028D00000000000000000000000000000000000F8
:1028E00000000000000000000000FFFFFFFFFFFFEE
:1028F0007F00FFFFFFFFFF7F7F63E3E3E3E3E3E3AB
:10290000E36372FFFFFFFFFF7F0000FFFFFFFFFF9A
:10291000FFFFFFFFFFFFFEFEFEFEFEFFFFFFFFFFCC
:10292000FFFFCF8F9FFFFFFFFFFFDFCFCFFFFFFF37
:10293000FFFFFFFF0000000000000000000000009B
:102940000000000000000000000000000000000087
:102950000000000080E0F0FE7F3F3F1F77F9FCFCA5
:10296000FDBF3E3E3E1E1C18BFFFFFFFFFFF7F184E
:102970001C1E1F3E3EBEFCFCFCFF7F3F1F0FFFFFE7
:10298000FFFFFF7F07070303000F0F0F0F0703234E
:1029900071F1F9FDFFFFFFFDF9F1716123070F0FE1
:1029A0001F0F0000000000000000000000000000F9
:1029B0000000000000000000000000000000000017
:1029C0000000010100000000000000000000010103
:1029D000010100000000080F0F07070300000000BE
:1029E000000101010101000000000000070F0F07B6
:1029F00003000000000000000000000000000000D4
:102A0000031FFFFFFF3F0300000000000000000065
:102A100000000000000000000000000000000000B6
:102A200000000000000000000000000000000000A6
:102A30000000000000000000000000000000000096
:102A40000000000000000000000000000000000086
:102A50000000000000000000000000000000000076
:102A60000000000000000000000000000000000066
:102A700007FF3F0000000000000000000000000011
:102A80000000000000000000000000000000000046
:102A90000000000000000000000000000000000036
:102AA0000000000000000000000000000000000026
:102AB0000000000000000000000000000000000016
:102AC0000000000000000000000000000000000006
:102AD00000000000000000000000000000000007EF
:102AE00000000000000000000000000000000000E6
:102AF00000000000000000000000000000000800CE
:102B000004000000000007100000000001000000A9
:102B100000000000000000000000000000000000B5
:102B20001000000000010000030000000000000091
:102B30003400C44100000000582B00000000202099
:102B40004800000020010000A02B000048002020C9
:102B5000A824000048010000000000000000000060
:102B60000000000000000000000000000000000065
:102B70000000000000000000000000000000000055
:102B80000000000000000000000000000000000045
:102B900000000000000000000000000000002020F5
:04000005000000C136
:00000001FF
