:020000040000FA
:10000000782620208D01000091010000930100005E
:1000100000000000000000000000000000000000E0
:10002000000000000000000000000000950100003A
:10003000000000000000000097010000990100008E
:100040009B0100009B0100009B0100009B01000040
:100050009B0100009B0100009B0100009B01000030
:100060009B0100009B0100009B0100009B01000020
:100070009B0100009B0100009B0100009B01000010
:100080009B0100009B0100009B0100009B01000000
:100090009B0100009B0100009B0100009B010000F0
:1000A0009B0100009B0100009B0100009B010000E0
:1000B0009B0100009B0100009B0100009B010000D0
:1000C00000F002F800F052F812A030C808382418E6
:1000D0002D18AC4201D100F049F80FCCA246AB4636
:1000E0000CA730CF2D1B083F3F197C427F1E544484
:1000F0002D090426F441641EAC4201D300F036F809
:100100000126334200D0FB1A3343984754465D46DC
:10011000DFE70000142B0000342B0000000000007B
:10012000103A02D378C878C1FAD8520701D330C840
:1001300030C101D504680C60704700000000000069
:100140007047000000000000002300240025002666
:10015000103A01D378C1FBD8520700D330C100D583
:100160000B6070471FB51FBD10B510BD00F043F9FF
:100170001146FFF7F7FF02F001F900F05BF903B455
:10018000FFF7F2FF03BC00F061F9000006480047EA
:10019000FEE7FEE7FEE7FEE7FEE7FEE70348044969
:1001A000024A044B70470000C1000000780620207E
:1001B000782620207806202001E004C0091F0429A9
:1001C000FBD28B0701D50280801CC90700D00270CA
:1001D000704700290BD0C30702D00270401C491E93
:1001E000022904D3830702D50280801C891EE3E71D
:1001F0000022EEE70022DFE7002203098B4273D3DF
:10020000030A8B4258D3030B8B423CD3030C8B4223
:1002100021D312E003460B437FD4002243088B42D4
:1002200074D303098B425FD3030A8B4244D3030B7D
:100230008B4228D3030C8B420DD30902FF2212BA42
:10024000030C8B4202D31212090265D0030B8B42BE
:1002500019D300E0090AC30B8B4201D3CB03C01AA8
:100260005241830B8B4201D38B03C01A5241430B83
:100270008B4201D34B03C01A5241030B8B4201D373
:100280000B03C01A5241C30A8B4201D3CB02C01ADE
:100290005241830A8B4201D38B02C01A5241430A56
:1002A0008B4201D34B02C01A5241030A8B4201D345
:1002B0000B02C01A5241CDD2C3098B4201D3CB01EC
:1002C000C01A524183098B4201D38B01C01A52419B
:1002D00043098B4201D34B01C01A524103098B429F
:1002E00001D30B01C01A5241C3088B4201D3CB008A
:1002F000C01A524183088B4201D38B00C01A52416D
:1003000043088B4201D34B00C01A5241411A00D21C
:1003100001465241104670475DE0CA0F00D0494285
:10032000031000D3404253409C46002203098B42F5
:100330002DD3030A8B4212D38901FC2212BA030A7D
:100340008B420CD3890192118B4208D389019211FF
:100350008B4204D389013AD0921100E08909C30984
:100360008B4201D3CB01C01A524183098B4201D386
:100370008B01C01A524143098B4201D34B01C01A71
:10038000524103098B4201D30B01C01A5241C308E9
:100390008B4201D3CB00C01A524183088B4201D358
:1003A0008B00C01A5241D9D243088B4201D34B0073
:1003B000C01A5241411A00D20146524110466346CA
:1003C0005B1001D34042002B00D549427047634681
:1003D0005B1000D3404201B50449002802DC491CEF
:1003E000084000E00846C046C04602BDFFFFFF7F50
:1003F000704770477047754600F024F8AE46050018
:1004000069465346C008C000854618B020B5FFF7BE
:10041000C5FE60BCB64600260027C0C5C0C5C0C525
:10042000C0C5C0C5C0C5C0C5C0C5403D490849001C
:100430008D46704710B50446C046C0462046FFF7BB
:100440009EFE10BD0048704748002020014918203A
:10045000ABBEFEE72600020070470000B0B50A7888
:10046000032313400B4A84580B4D2540EB18A92455
:1004700024061B198350072212064B6813401124CF
:10048000240205599543EA1802510019497801617F
:10049000B0BDC04608080000FCFFFF00811E091F18
:1004A00000BFFCD270470000B0B511221202835881
:1004B000174C1C408B888D681D43164B2B401B1915
:1004C00083508B890C681C438B7B2343124C1C404C
:1004D00080180269114B1340E2180261CA7B0B6954
:1004E0004C69134323430A8B1A430D4B1340026A92
:1004F0000C4C14401A1902628A7E898B11430A4AF5
:100500000A40016B094B0B4099180163B0BDC0460E
:10051000FFFEFEFF0001010003030001FCFCFFFEE3
:1005200001030301FEFCFCFE010F0000FEF0FFFFD3
:1005300012490A68124802604A6842608A6882600A
:10054000CA68C2600A6902614A6942618A69826155
:10055000CA69C2610A6A02624A6A42628A6A82623D
:10056000CA6AC2620A6B02634A6B42638A6B826325
:10057000C96B854A0264C1637047C0460000C4412C
:100580000000202070B50A780C231A4001242403AF
:1005900005196E689E43B2186A60497807221140B7
:1005A000035993435918015170BD0000B0B5112291
:1005B000120283580C4C1C400B894D881D438B79CB
:1005C0002B430A4D1D4063198350CB798C881C4303
:1005D000097821435D239B001940801842689A43A3
:1005E00051184160B0BDC04680CCFFFF7F33000092
:1005F00010B50122120383180C785C604978815091
:1006000010BD0000F0B585B0044601252902394E21
:1006100030680491884330605A480068006C5A4939
:10062000884201D0FFF784FFA9036C4802680A42A0
:1006300008D102680A4205D102680A4202D1026862
:100640000A42F3D0617E2940B269AA435118B161D0
:100650002021615C03221140F36993435918F16131
:1006600025490A6805230B60636A1F6837625B6867
:100670007362072313400B60E1697F221202F36962
:1006800093434906490C5918F16127680395656839
:10069000A1680091E3682169019161690291B269E1
:1006A000164911403A07120B2D03ADB2AA181A438E
:1006B000009B1B071B0D1343019A1343029A13431C
:1006C000227E1A430E4B13405918B1613168049AC7
:1006D000114331600399490202680A4208D1026855
:1006E0000A4205D102680A4202D102680A42F3D0E6
:1006F00005B0F0BD08010B40001340408D00F0FF35
:1007000072FF0F00F0B581B014460D4606461D4835
:100710000068006C1C49884201D0FFF709FF1B48A4
:100720000246083A136801218B43136003231B031D
:100730001E4007689F43BB1903600368FF26B3434D
:10074000EDB25B19036013680B4313600268002C61
:1007500012D00B071A430260080220490A680242BD
:1007600008D10A68024205D10A68024202D10A6829
:100770000242F3D001B0F0BD09078A43026001B024
:10078000F0BDC04644002020FECAFECA10010B4046
:1007900010B51149886001225305104804681C42B5
:1007A00008D104681C4205D104681C4202D10468C7
:1007B0001C42F3D012040B6813430B600168C90696
:1007C00008D40168C90605D40168C90602D40168C5
:1007D000C906F3D510BDC04604010B4004020B400E
:1007E000F0B57B4A8218394BC31808794E79384DD9
:1007F000794C002E23D0202804D00526F6010028AD
:1008000003D003E0334E002800D18826576F2F40D5
:1008100037435767976F2F4037439767566B26408C
:100820005663966B264096630026566596658F261E
:10083000F6435F6837405F609F6837409F608E79FE
:100840000968202807D0002815D1491E5160D76EAD
:100850002F40882115E0491E5160D16E29401D4F5F
:100860003943D166116F2940394311670121490786
:10087000194D174609E049085160D76E2F400521F0
:10088000C9010F43D766174670373C682C400C43AC
:100890003C60D16A504C2140D162116B2140116300
:1008A0000021D16411658F21C943D46F0C40D467F6
:1008B0001C680C401C600643BD2030401168074B8B
:1008C0000B40C018801C1060F0BDC04684180000AA
:1008D00024493E0001040000FFFFFFCF4000FFCF8E
:1008E000B0B53B4A80184A6842600A78222A57D835
:1008F000930001A4E3589F4697090000A109000056
:1009000097090000A1090000A1090000A109000049
:10091000A1090000A1090000A1090000A10900002F
:10092000A1090000A1090000A1090000A10900001F
:10093000A1090000A109000085090000A10900002B
:1009400085090000A1090000A1090000A10900001B
:10095000A1090000A1090000A1090000A1090000EF
:10096000A1090000A1090000A1090000A1090000DF
:10097000A1090000A109000085090000A1090000EB
:100980008509000003231B0704689C4301235B07C0
:10099000E318036004E003231B0704689C4304601E
:1009A0000B69C360CB680B4C1C40C36A0A4D1D40E9
:1009B0002B19C3620368094C1C400460097A114377
:1009C0003F2211400368934359180160B0BDC046EF
:1009D00004180000777702008888FDFF7F00FFFF82
:1009E00010B507239B04194092008018024A8458CE
:1009F0009C436118815010BD3018000010B5029C56
:100A0000A400001911431943014A815010BDC0468A
:100A10005018000092008018014A81507047C0466B
:100A20001018000010B50122120383180C789C6086
:100A30004B7883508978014A815010BD0C11000019
:100A4000B0B51122120283580124A34383508B783E
:100A50000C881C438B882343094C1C408358094D48
:100A60001D402B1983508B79CC791C43097A214383
:100A70007E231940801842689A4351184160B0BDE6
:100A800018670000E798FDFF10B5012212038318D4
:100A90000C789C604978815010BD0A784B781343DC
:100AA0004A881A4392B211231B02C250C0188A8886
:100AB000C98809048918816070470000F0B589B0C1
:100AC0008948402404611920C0010490FFF7E6FC26
:100AD000012739057D4D2868C002059105D4286895
:100AE000084202D10123002001E0002338463A06E3
:100AF0002968C901039206D42968114203D1022151
:100B00000891002101E0089339467B062A6892018A
:100B1000029306D42A681A4203D1032208920022C3
:100B200000E03A463B040793FE062B681B0105D400
:100B30002B68334202D16C48079979E00696084049
:100B40001040694804600FD0802404610498FFF7C6
:100B5000A5FC28680599084209D12868084206D1F1
:100B600001200890002003E0089807997CE03846AF
:100B7000039A029B2968114206D12968114203D1C8
:100B800002210891002100E039462A681A4206D164
:100B90002A681A4203D103220892002200E03A4652
:100BA0002B68069E334206D12B68069E334202D143
:100BB0000799091D3BE0084010404B4804600FD0E6
:100BC0000126340204610498FFF768FC286805993F
:100BD000084208D12868084205D10020089603E0A1
:100BE0000799091D3FE03846039A029B2968114284
:100BF00006D12968114203D102210891002100E0A9
:100C000039462A681A42019606D12A681A4203D147
:100C100003220892002200E03A462B68069E3342E7
:100C200009D12B68069E334205D1079908312E4819
:100C30000460042018E0084010402B48046010D0E5
:100C400001994C0204610498FFF728FC2868059973
:100C500008420DD1286808420AD10D2008900020D2
:100C60000AE0079908310898401880B209B0F0BD31
:100C700008980C3008903846039A029B2968114264
:100C800006D12968114203D10E210891002100E00C
:100C900039462A681A4205D12A681A4202D10F221F
:100CA000089200272A68069B1A4206D12A681A422F
:100CB00003D1F74804601020D7E708403840F448D3
:100CC000046001D10898D0E70020CEE780330A40C5
:100CD000EF48402101608021016001210A02026089
:100CE000490201607047C04690320A40F0B581B0B9
:100CF0000121080249020022E74BE84C03E0521CA4
:100D0000082A00D19CE0186119612568ED0608D514
:100D10002568ED0605D52568ED0602D52568ED06A2
:100D2000F3D41546B03525632568ED0608D525684A
:100D3000ED0605D52568ED0602D52568ED06F3D448
:100D400019601860186119612568ED0608D52568D5
:100D5000ED0605D52568ED0602D52568ED06F3D428
:100D6000022525632568ED0608D52568ED0605D51D
:100D70002568ED0602D52568ED06F3D419601860E4
:100D8000186119612568ED0608D52568ED0605D5B9
:100D90002568ED0602D52568ED06F3D410252563F8
:100DA0002568ED0608D52568ED0605D52568ED060C
:100DB00002D52568ED06F3D419601860002505E01A
:100DC00019601860AD1C6DB2002D98D418601961BF
:100DD0002668F60608D52668F60605D52668F606BE
:100DE00002D52668F606F3D4002626632768FF0698
:100DF00008D52768FF0605D52768FF0602D52768AE
:100E0000FF06F3D419601860186019612768FF069F
:100E100008D52768FF0605D52768FF0602D527688D
:100E2000FF06F3D426632668F606C9D52668F606BB
:100E3000C6D52668F606C3D52668F606F3D4BFE7FE
:100E4000412001010248FFF7D5F901B0F0BDC046CD
:100E5000A8002020F0B58BB0089207900693994225
:100E600000D3FAE010980A900B460899079FCA1B16
:100E700001200092024003920E223A40521C059239
:100E80004C421946FA4309920502460238091030CD
:100E900004900022804F814BE0B202900998C0B2CA
:100EA000019006E002460999491C0698814200D14A
:100EB000D3E010463D613E611A68D20608D51A6833
:100EC000D20605D51A68D20602D51A68D206F3D41E
:100ED0000A46B032D2B21A631A68D20608D51A6826
:100EE000D20605D51A68D20602D51A68D206F3D4FE
:100EF0003E603D603D613E611A68D20608D51A68C1
:100F0000D20605D51A68D20602D51A68D206F3D4DD
:100F1000049A1A631A68D20608D51A68D20605D54B
:100F20001A68D20602D51A68D206F3D43E603D6034
:100F30003D613E611A68D20608D51A68D20605D509
:100F40001A68D20602D51A68D206F3D40991059917
:100F500019631A68D20608D51A68D20605D51A6828
:100F6000D20602D51A68D206F3D43E603D600899D5
:100F7000079A914296D90399002902461FD00A99EF
:100F80000A5C3D603E611C68E40608D51C68E40606
:100F900005D51C68E40602D51C68E406F3D41A6380
:100FA0001A68D20608D51A68D20605D51A68D2067C
:100FB00002D51A68D206F3D43E603D60421C029905
:100FC000019C8C4200D16EE70099081807E03E6052
:100FD0003D60C1B2921CD4B2A14200D163E70A992C
:100FE0008C5C3D603E611968C90608D51968C90660
:100FF00005D51968C90602D51968C906F3D41C635A
:101000001968C90608D51968C90605D51968C90639
:1010100002D51968C906F3D43E603D600A9951189B
:101020004C783D603E611968C90608D51968C90643
:1010300005D51968C90602D51968C906F3D41C6319
:101040001968C906C3D51968C906C0D51968C90683
:10105000BDD51968C906F3D4B9E70BB0F0BDC046D9
:10106000F0B583B00127FD05094E3560094C2046D7
:10107000FFF714FA35612046FFF710FA35603C029D
:10108000054D2C6102977E022E61044F08E0C04698
:1010900090320A4000127A0090520A401091464065
:1010A0003868C00608D53868C00605D53868C00657
:1010B00002D53868C006F3D4AE2038633868C0065D
:1010C00008D53868C00605D53868C00602D5386826
:1010D000C006F3D42E602C602C612E613868C006E7
:1010E00008D53868C00605D53868C00602D5386806
:1010F000C006F3D4022038633968C90608D53968B8
:10110000C90605D53968C90602D53968C906F3D4B8
:101110002E602C602C612E613968C90608D53968AB
:10112000C90605D53968C90602D53968C906F3D498
:101130001021019139633968C90608D53968C90693
:1011400005D53968C90602D53968C906F3D42E60B9
:101150002C602C612E613968C90608D53968C9062A
:1011600005D53968C90602D53968C906F3D44022C5
:101170003A633968C90608D53968C90605D539689A
:10118000C90602D53968C906F3D42E602C602C61DB
:101190002E613968C90608D53968C90605D5396888
:1011A000C90602D53968C906F3D481213963396883
:1011B000C90608D53968C90605D53968C90602D5F2
:1011C0003968C906F3D42E602C602C612E61396811
:1011D000C90608D53968C90605D53968C90602D5D2
:1011E0003968C906F3D4CF2139633968C90608D5EF
:1011F0003968C90605D53968C90602D53968C906EE
:10120000F3D42E602C602C612E613968C90608D594
:101210003968C90605D53968C90602D53968C906CD
:10122000F3D4A12139633968C90608D53968C906DC
:1012300005D53968C90602D53968C906F3D42E60C8
:101240002C602C612E613968C90608D53968C90639
:1012500005D53968C90602D53968C906F3D4C8214D
:1012600039633968C90608D53968C90605D53968AA
:10127000C90602D53968C906F3D42E602C602C61EA
:101280002E613968C90608D53968C90605D5396897
:10129000C90602D53968C906F3D4A62139633B686B
:1012A000DB0608D53B68DB0605D53B68DB0602D5C7
:1012B0003B68DB06F3D42E602C602C612E613B680A
:1012C000DB0608D53B68DB0605D53B68DB0602D5A7
:1012D0003B68DB06F3D4A8233B633B68DB0608D5F9
:1012E0003B68DB0605D53B68DB0602D53B68DB06C1
:1012F000F3D42E602C602C612E613B68DB0608D590
:101300003B68DB0605D53B68DB0602D53B68DB06A0
:10131000F3D43F233B633B68DB0608D53B68DB0621
:1013200005D53B68DB0602D53B68DB06F3D42E60AF
:101330002C602C612E613B68DB0608D53B68DB0620
:1013400005D53B68DB0602D53B68DB06F3D4D32327
:101350003B633B68DB0608D53B68DB0605D53B688D
:10136000DB0602D53B68DB06F3D42E602C602C61D3
:101370002E613B68DB0608D53B68DB0605D53B687C
:10138000DB0602D53B68DB06F3D400233B633B68F6
:10139000DB0608D53B68DB0605D53B68DB0602D5D6
:1013A0003B68DB06F3D42E602C602C612E613B6819
:1013B000DB0608D53B68DB0605D53B68DB0602D5B6
:1013C0003B68DB06F3D4D5233B633B68DB0608D5DB
:1013D0003B68DB0605D53B68DB0602D53B68DB06D0
:1013E000F3D42E602C602C612E613B68DB0608D59F
:1013F0003B68DB0605D53B68DB0602D53B68DB06B0
:10140000F3D480233B633B68DB0608D53B68DB06EF
:1014100005D53B68DB0602D53B68DB06F3D42E60BE
:101420002C602C612E613B68DB0608D53B68DB062F
:1014300005D53B68DB0602D53B68DB06F3D4D92330
:101440003B633B68DB0608D53B68DB0605D53B689C
:10145000DB0602D53B68DB06F3D42E602C602C61E2
:101460002E613B68DB0608D53B68DB0605D53B688B
:10147000DB0602D53B68DB06F3D4F1233B633B6814
:10148000DB0608D53B68DB0605D53B68DB0602D5E5
:101490003B68DB06F3D42E602C602C612E613B6828
:1014A000DB0608D53B68DB0605D53B68DB0602D5C5
:1014B0003B68DB06F3D4DA233B633B68DB0608D5E5
:1014C0003B68DB0605D53B68DB0602D53B68DB06DF
:1014D000F3D42E602C602C612E613B68DB0608D5AE
:1014E0003B68DB0605D53B68DB0602D53B68DB06BF
:1014F000F3D412233B633B68DB0608D53B68DB066D
:1015000005D53B68DB0602D53B68DB06F3D42E60CD
:101510002C602C612E613B68DB0608D53B68DB063E
:1015200005D53B68DB0602D53B68DB06F3D4DB233D
:101530003B633B68DB0608D53B68DB0605D53B68AB
:10154000DB0602D53B68DB06F3D42E602C602C61F1
:101550002E613B68DB0608D53B68DB0605D53B689A
:10156000DB0602D53B68DB06F3D43A633A68D20661
:1015700008D53A68D20605D53A68D20602D53A6847
:10158000D206F3D42E602C602C612E613A68D2060C
:1015900008D53A68D20605D53A68D20602D53A6827
:1015A000D206F3D420223A633A68D20608D53A68C4
:1015B000D20605D53A68D20602D53A68D206F3D4E7
:1015C0002E602C602C612E613A68D20608D53A68EC
:1015D000D20605D53A68D20602D53A68D206F3D4C7
:1015E00038633868C00608D53868C00605D538683D
:1015F000C00602D53868C006F3D42E602C602C617A
:101600002E613868C00608D53868C00605D5386828
:10161000C00602D53868C006F3D48D203863386818
:10162000C00608D53868C00605D53868C00602D59A
:101630003868C006F3D42E602C602C612E613868A7
:10164000C00608D53868C00605D53868C00602D57A
:101650003868C006F3D4142038633868C00608D54B
:101660003868C00605D53868C00602D53868C00697
:10167000F3D42E602C602C612E613868C00608D52A
:101680003868C00605D53868C00602D53868C00677
:10169000F3D4A42038633868C00608D53868C0067B
:1016A00005D53868C00602D53868C006F3D42E6068
:1016B0002C602C612E613868C00608D53868C006D9
:1016C00005D53868C00602D53868C006F3D439633A
:1016D0003868C00608D53868C00605D53868C00621
:1016E00002D53868C006F3D42E602C602C612E61C0
:1016F0003868C00608D53868C00605D53868C00601
:1017000002D53868C006F3D4AF2139633868C00603
:1017100008D53868C00605D53868C00602D53868CF
:10172000C006F3D42E602C602C612E613868C00690
:1017300008D53868C00605D53868C00602D53868AF
:10174000C006F3D4009139633868C00608D53868FC
:10175000C00605D53868C00602D53868C006F3D47F
:101760002E602C60FFF7C2FA2C612E613868C0062B
:1017700008D53868C00605D53868C00602D538686F
:10178000C006F3D4009838633868C00608D53868B6
:10179000C00605D53868C00602D53868C006F3D43F
:1017A0002E602C602C612E613868C00608D5386820
:1017B000C00605D53868C00602D53868C006F3D41F
:1017C000019838633868C00608D53868C00605D562
:1017D0003868C00602D53868C006F3D42E602C6085
:1017E0002C612E613868C00608D53868C00605D55A
:1017F0003868C00602D53868C006F3D4029838634A
:101800003868C00608D53868C00605D53868C006EF
:1018100002D53868C006F3D42E602C6003B0F0BD4A
:10182000F0B501252B02924C23616D0225618609DA
:10183000022737408F4E3468E40608D53468E40642
:1018400005D53468E40602D53468E406F3D4C91932
:101850005039C9B23163203A3168C90608D53168B8
:10186000C90605D53168C90602D53168C906F3D461
:101870007F4F3D603B603B613D613168C90608D5E3
:101880003168C90605D53168C90602D53168C9066F
:10189000F3D440B2C1178843010910240C433463C8
:1018A0003168C90608D53168C90605D53168C90649
:1018B00002D53168C906F3D43D603B603B613D61B0
:1018C0003168C90608D53168C90605D53168C90629
:1018D00002D53168C906F3D40E210840401C30639C
:1018E0003068C00608D53068C00605D53068C00627
:1018F00002D53068C006F3D43D603B603B603D617B
:10190000D1B2062048435C490A5C3468E40608D535
:101910003468E40605D53468E40602D53468E40684
:10192000F3D432633268D20608D53268D20605D5C0
:101930003268D20602D53268D206F3D43D603B60ED
:101940003B603D61081841783268D20608D532689C
:10195000D20605D53268D20602D53268D206F3D453
:1019600031633168C90608D53168C90605D53168C3
:10197000C90602D53168C906F3D43D603B603B60BF
:101980003D6181783268D20608D53268D20605D525
:101990003268D20602D53268D206F3D43163316898
:1019A000C90608D53168C90605D53168C90602D50A
:1019B0003168C906F3D43D603B603B603D61C1784E
:1019C0003268D20608D53268D20605D53268D2060A
:1019D00002D53268D206F3D431633168C90608D51E
:1019E0003168C90605D53168C90602D53168C9060E
:1019F000F3D43D603B603B603D6101793268D206C3
:101A000008D53268D20605D53268D20602D53268CA
:101A1000D206F3D431633168C90608D53168C906E6
:101A200005D53168C90602D53168C906F3D43D60D1
:101A30003B603B603D6140793168C90608D531683B
:101A4000C90605D53168C90602D53168C906F3D47F
:101A500030633068C00608D53068C00605D53068E8
:101A6000C00602D53068C006F3D43D603B60F0BDCF
:101A700090520A4010914640BA250000F0B589B056
:101A800005AC07C4002B65D01C460E9859429A1E1F
:101A9000009240080490581E02900026C8B203909D
:101AA0002D4D08963746019311E001200890302013
:101AB0000143CAB230460499484305994018C0B260
:101AC0000699FFF7ADFE7F1C761CA64242D0FF2090
:101AD000B8430399884201D1012120E0F043001965
:101AE0000099891BC9B2032901D2012108E0FC2217
:101AF00002400023012169431B1DDCB29442FAD14C
:101B000003221040019C0AD0012801D10A2005E0DF
:101B1000022802D07D20C00000E0642041430798E5
:101B200000F050FC0A21FEF767FB08980028BED1A0
:101B30000298B042BBDD0029B7D130460499484332
:101B400005994018C0B220220699FFF769FE0020CF
:101B50000890B8E709B0F0BD1027000010B50124C7
:101B6000A0071349FEF77AFC12484168284A0A4048
:101B70002104511841608168264A0A4003210B065E
:101B8000D21882600C4A00231360546002239360D1
:101B9000D1607D2109024161E102084A136A0B43C9
:101BA000136213680B43136001682143016010BD89
:101BB000542B00000011004080110040281000400C
:101BC00080B510481049FEF749FC10484168104A9A
:101BD0000A4001210B04D218426082680D4B134069
:101BE000032212069A1882600B4A0423136005230D
:101BF0005360062393600823D36002680A4302609F
:101C000080BDC046002000405C2B00000031004039
:101C1000FEFFECFFF8FFE0E08031004080B50648B1
:101C20000649FEF741FC064806490160064801687E
:101C300001220A43026080BD00800140642B000045
:101C4000009201401306000000910140F0B54D4B99
:101C50000020586298628920D860012251074A4CBE
:101C600021601861900720608620D862474C22606E
:101C70001863022121604649891C19601D681D6096
:101C800059605968596051061D680D431D605D68B3
:101C90000D435D60822119653E4E5E6519645E6488
:101CA0009866301DD8668B20D86398633A4D2846D5
:101CB0003C3883210160D967701C9867374E3849DA
:101CC000316030683060374F1F675F6728463038B3
:101CD00007602846243807606F6230460C3807607A
:101CE000304608380760301F076037648120706411
:101CF0009F65DF651F665F6629602C682C6029611F
:101D00002C692C6129622C6A2C62A962A96AA962D9
:101D1000E860B064F7641E4C5C63596B59639C6463
:101D2000996C9964D8642946383908602946343951
:101D30000860294628390860291F0860A860124BEE
:101D40001846303818490160184640389103016040
:101D5000164818600D4B1846303815490160196057
:101D6000D00714490A6802430A6013490A6A024309
:101D70000A620A6802430A600F2080010F49086066
:101D80000863F0BD04804240D0120A40D0320A40BD
:101D900081000C0082000400C0804240108142405B
:101DA00081000E00810002000032430000724300F7
:101DB000C033C074A0330A4028300A40A0520A4001
:101DC00010B511481149FEF7DDFB01200202104950
:101DD0000B46283B1C6894431C600A46143A0023B7
:101DE00013600A1F042313600A690724A2430A61CF
:101DF00022020C6994430C610A689A430A600A68DB
:101E000002430A6010BDC04600000F40842B000052
:101E100028120F4010B50D4C0D492046FEF7E8FB87
:101E20000C492046FEF7C2FB0B4841681D4A0A4098
:101E3000511C4160816812220A432D218A4382602D
:101E4000016801220A43026010BDC046008046407E
:101E5000862B0000882B00000491464010B50D4CE5
:101E60000D492046FEF7C4FB0C492046FEF79EFBB9
:101E70000B4841680B4A0A401332426081681222C3
:101E80000A432D218A438260016801220A430260CD
:101E900010BDC04600A04640922B0000942B0000CD
:101EA00004B1464000FCFFFFF0B581B01F4800249C
:101EB00004600F2630021E4D2968814301277802F5
:101EC0000090081828600320C1432A1F13680B40A4
:101ED00013606968B943696039026A688A436A6055
:101EE00000030A212246FEF70DFC1248FEF78AFB8A
:101EF00029681020014320229143296031036A6B35
:101F00008A43092109035118696339032A680A437E
:101F10002A60A96B0143A963686B00990843686351
:101F20002046FEF735FC01B0F0BDC04608030B406B
:101F300004010B40A02B000010B50E4807220261DF
:101F4000036803210B4303600B4B1C68640708D430
:101F50001C68640705D41C68640702D41C68640705
:101F6000F3D504249C6112020368934309025918B3
:101F7000016010BD005144403050444010B5094C40
:101F800009492046FEF74EFD08492046FEF7A8FC09
:101F90000748016802220A430260064801210160E5
:101FA00010BDC04600208640C82B0000CC2B00008E
:101FB0002830864008318640F0B581B01D4C1E495E
:101FC0002046FEF72FFD1D492046FEF709FC1C4860
:101FD0000168414A0A4002600025009520262046FB
:101FE00031462A462B46FEF709FD204629462A4659
:101FF000FEF7F6FC7D20C700204639462A46FEF74C
:1020000009FD012400940B4831462A462B46FEF771
:10201000F5FC0848064629462246FEF7E1FC304614
:1020200039462246FEF7F6FC06488460032101602B
:1020300001B0F0BD00400840E02B0000E42B0000A0
:10204000045808400051084070B582B01E4C1F492A
:102050002046FEF7E7FC1E492046FEF7C1FB1D485F
:1020600001681D4A0A400260002500952046294665
:102070002A462B46FEF7C2FC204629462A46FEF792
:10208000AFFC322120462A46FEF7C4FC012600960A
:10209000204629462A462B46FEF7B0FC2046294614
:1020A0003246FEF79DFC5F2120463246FEF7B2FC29
:1020B0000A4886600A490A68022313430B60032119
:1020C000016002B070BDC04600808640EC2B00006D
:1020D000F02B0000049886407F00FFFF00918640AF
:1020E0002890864010B5154C15492046FEF7CCFCCB
:1020F00014492046FEF7A4FC0320C10312480268DD
:102100008A4302600169424A0A400A320261416917
:1021100036220A4309218A43426141680122114063
:1021200043689343591841609102084B1C680C4363
:102130001C6001681143016010BDC0460080104062
:10214000F82B0000FA2B000000911040289010405E
:1021500010B5134C13492046FEF796FC1249204651
:10216000FEF76EFC0320C103104802688A43026038
:102170000169274A0A4041218900511801614169DA
:102180001B220A4324218A434261416801221140F3
:10219000436893435918416001681143016010BDC1
:1021A00000001040042C0000062C0000001110401C
:1021B00010B5134C13492046FEF766FC1249204621
:1021C000FEF73EFC0320C103104802688A43026008
:1021D00001690F4A0A404121C90051180161416952
:1021E00035220A430A218A43426141680122114093
:1021F000436893435918416001681143016010BD61
:1022000000205040102C0000122C000000315040E3
:102210000000FFFF80B502480249FEF73EFC80BD8A
:10222000000003401C2C000080B500F039F8FFF7D7
:102230000DFDFFF739FEFFF707FFFFF7BDFEFFF7C4
:102240009DFEFFF7BDFDFFF74DFFFFF781FFFFF795
:10225000AFFFFFF7DFFDFFF701FEFFF77FFCFFF7A2
:10226000AFFCFFF7D7FFFFF767FEFFF7D7FCB820FB
:10227000064900220A549C2005490A542420054995
:102280000A5405490A540548027380BD18052020E8
:10229000D4052020B8042020E004202008052020B8
:1022A000F0B581B02248234A426023484260234867
:1022B00042602348426023484260234842602348EA
:1022C00042602348426023484260234842602348DA
:1022D0004260234E7260234D6A60234C6260901E00
:1022E000224B58602249486022484260224A104FDF
:1022F0003A60114F3A60114F3A60114F3A60114FF6
:102300003A60114F3A60114F3A60114F3A60114FE5
:102310003A60114F3A60114F3A6032602A60226091
:102320001A600A6002601020FEF7B8F801B0F0BD34
:1023300000080A40030000B100280A4000480A4093
:1023400000888640004808400028864000080F406A
:102350000088104000081040002850400088464087
:1023600000A8464000080040002800400008034044
:1023700000484440008801400100002682B0FFF779
:1023800053FFFEF7A5FCFEF76BFE0C4800900920FA
:10239000002177220823FEF75DFD0948FEF77EF84D
:1023A000FEF7A4FCFEF78AFB0246102000900020F6
:1023B00004230146FFF762FBF4E7C046E227000072
:1023C00000B4C40443088B421AD3002203098B4291
:1023D00079D3030A8B425ED3030B8B4242D3030CA7
:1023E0008B4227D30902FF2212BA030C8B4202D37D
:1023F0001212090203D0030B8B4233D31AE0D3E04D
:10240000411A8041401C704703460B4371D4430876
:102410008B42F5D3002203098B4254D3030A8B422B
:1024200039D3030B8B421DD3030C8B4202D394464A
:102430006EE0090AC30B8B4201D3CB03C01A524191
:10244000830B8B4201D38B03C01A5241430B8B4247
:1024500001D34B03C01A5241030B8B4201D30B0330
:10246000C01A5241C30A8B4201D3CB02C01A524157
:10247000830A8B4201D38B02C01A5241430A8B421A
:1024800001D34B02C01A5241030A8B4201D30B0203
:10249000C01A5241CDD2C3098B4201D3CB01C01A1D
:1024A000524183098B4201D38B01C01A5241430927
:1024B0008B4201D34B01C01A524103098B4201D315
:1024C0000B01C01A5241C3088B4201D3CB00C01A82
:1024D000524183088B4201D38B00C01A52414308FA
:1024E0008B4201D34B00C01A5241411A5241100095
:1024F0007047CA0F00D04942031000D340425340F6
:1025000000229C4603098B422DD3030A8B4212D32F
:102510008901FC2212BA030A8B420CD38901921161
:102520008B4208D3890192118B4204D3890137D0A1
:10253000921100E08909C3098B4201D3CB01C01A73
:10254000524183098B4201D38B01C01A5241430986
:102550008B4201D34B01C01A524103098B4201D374
:102560000B01C01A5241C3088B4201D3CB00C01AE1
:10257000524183088B4201D38B00C01A5241D9D2F9
:1025800043088B4201D34B00C01A5241411A00D27A
:1025900001465241104663465B1000D340427047EB
:1025A00063465B1000D3404201B50021004201D0D8
:1025B000C9430846C046C04602BD000000000000F6
:1025C0000000002F000000000700070000147F1427
:1025D0007F1400242A7F2A12006264081323003625
:1025E0004955225000000503000000001C22410054
:1025F000000041221C000014083E08140008083E98
:102600000808000000A06000000808080808000092
:1026100060600000002010080402003E5149453E61
:102620000000427F4000004261514946002141457F
:102630004B31001814127F10002745454539003CE6
:102640004A494930000171090503003649494936B4
:1026500000064949291E00003636000000005636A3
:102660000000000814224100001414141414000087
:102670004122140800020151090600324959513E15
:10268000007C1211127C007F49494936003E4141CD
:102690004122007F4141221C007F49494941007F7E
:1026A00009090901003E4149497A007F0808087F6D
:1026B0000000417F4100002040413F01007F08149D
:1026C0002241007F40404040007F020C027F007F9B
:1026D0000408107F003E4141413E007F0909090680
:1026E000003E4151215E007F0919294600464949B3
:1026F00049310001017F0101003F4040403F001F80
:102700002040201F003F4038403F006314081463FE
:1027100000070870080700615149454300007F41E8
:10272000410000552A552A55000041417F00000410
:102730000201020400404040404000000102040049
:10274000002054545478007F4844443800384444AE
:10275000442000384444487F00385454541800083A
:102760007E0901020018A4A4A47C007F0804047858
:102770000000447D4000004080847D00007F1028E0
:1027800044000000417F4000007C04180478007C75
:102790000804047800384444443800FC24242418F5
:1027A0000018242418FC007C080404080048545431
:1027B000542000043F444020003C4040207C001C4A
:1027C0002040201C003C4030403C0044281028445D
:1027D000001CA0A0A07C004464544C4414141414A5
:1027E00014140000000000000000000000000000C1
:1027F00000000000000000000000000000000000D9
:1028000000000000000000000000000000000000C8
:1028100000000000000000000000000000000000B8
:102820000000000000000000000000000000008028
:10283000FEFFFFC0000000000000000000000000DC
:102840000000000000000000000000000000000088
:10285000000000000000000000000000000000C0B8
:10286000C0E0E0F0FCFEFCF0E0C0C0C0C0C0C0C0F2
:10287000C0C0C0C0C0C0C0C0C0C0C0C0C0C0C0C058
:10288000C0C0C0C0C0C0C0E0E0F8FEFEF8E0E0C0DC
:10289000C00000000000000000C0C0E0F8FFFFFF23
:1028A000FFFFF8E0E0C0C0000000000000000000F2
:1028B0000000000000000000000000000000000018
:1028C0000000000000000000000000000000000008
:1028D000FFFFFFFFFFFFFF01FCFCFCFCF8F8F8180E
:1028E000381F3F3F3F3F3A3838F8FCFCFCF8F8709F
:1028F00000F8F8F8F8F8F9FFFFFFFFFDFEFEFCF81E
:10290000F0FCFCFCFCF8F8F8381999FBFFFFFFFB22
:10291000993938F8FCFCFCFCFCF838000000000099
:1029200000000000000000000000000000000000A7
:102930000000000000000000000000000000FFFF99
:10294000FFFFFFFF7F00FFFFFFFFFF7F7F63E3E3EA
:10295000E3E3E3E3E36372FFFFFFFFFF7F0000FFBA
:10296000FFFFFFFFFFFFFFFFFFFFFEFEFEFEFEFF7C
:10297000FFFFFFFFFFFFCF8F9FFFFFFFFFFFDFCFB7
:10298000CFFFFFFFFFFFFFFF00000000000000007F
:102990000000000000000000000000000000000037
:1029A000000000000000000080E0F0FE7F3F3F1FBD
:1029B00077F9FCFCFDBF3E3E3E1E1C18BFFFFFFF2B
:1029C000FFFF7F181C1E1F3E3EBEFCFCFCFF7F3F2E
:1029D0001F0FFFFFFFFFFF7F07070303000F0F0F0E
:1029E0000F07032371F1F9FDFFFFFFFDF9F171619D
:1029F00023070F0F1F0F0000000000000000000061
:102A000000000000000000000000000000000000C6
:102A100000000000000001010000000000000000B4
:102A200000000101010100000000080F0F0707036B
:102A30000000000000010101010100000000000091
:102A4000070F0F0703000000000000000000000057
:102A500000000000031FFFFFFF3F03000000000015
:102A60000000000000000000000000000000000066
:102A70000000000000000000000000000000000056
:102A80000000000000000000000000000000000046
:102A90000000000000000000000000000000000036
:102AA0000000000000000000000000000000000026
:102AB0000000000000000000000000000000000016
:102AC0000000000007FF3F000000000000000000C1
:102AD00000000000000000000000000000000000F6
:102AE00000000000000000000000000000000000E6
:102AF00000000000000000000000000000000000D6
:102B000000000000000000000000000000000000C5
:102B100000000000000000000000000000000000B5
:102B200000000000000000000000000000000000A5
:102B3000000000070000000000000000000000008E
:102B40000000000000000000000000000000000085
:102B50000000000001050000000000000105000069
:102B60000000000000000001000100000000000063
:102B70000001010000000000000000000000000053
:102B80000000000008070800040000030000071010
:102B9000000008000400000300000710000000000F
:102BA0000100000000000000000000000000000024
:102BB0000000000010000000000100000300000001
:102BC000000000003400C441080763002200000038
:102BD00009000000010000000000000000000000EB
:102BE00008076300E803000000000100080000007F
:102BF000640000000000010008010000180000004F
:102C00000030000008000000180000000030000044
:102C10000800000018000000003000000000000064
:102C20000000000000000000482C000000002020F0
:102C30004800000020010000902C000048002020E7
:102C400030260000480100000000000000000000E5
:102C50000000000000000000000000000000000074
:102C60000000000000000000000000000000000064
:102C70000000000000000000000000000000000054
:102C80000000000000000000000000000000202004
:04000005000000C136
:00000001FF
